{
  "contractName": "Members",
  "abi": [
    {
      "constant": true,
      "inputs": [
        {
          "name": "",
          "type": "address"
        }
      ],
      "name": "members",
      "outputs": [
        {
          "name": "name",
          "type": "string"
        },
        {
          "name": "status",
          "type": "uint8"
        },
        {
          "name": "entryBlock",
          "type": "uint256"
        }
      ],
      "payable": false,
      "stateMutability": "view",
      "type": "function"
    },
    {
      "constant": true,
      "inputs": [],
      "name": "votingContractAddress",
      "outputs": [
        {
          "name": "",
          "type": "address"
        }
      ],
      "payable": false,
      "stateMutability": "view",
      "type": "function"
    },
    {
      "constant": true,
      "inputs": [
        {
          "name": "",
          "type": "uint256"
        }
      ],
      "name": "memberAddresses",
      "outputs": [
        {
          "name": "",
          "type": "address"
        }
      ],
      "payable": false,
      "stateMutability": "view",
      "type": "function"
    },
    {
      "inputs": [
        {
          "name": "initialMemberAddresses",
          "type": "address[]"
        }
      ],
      "payable": false,
      "stateMutability": "nonpayable",
      "type": "constructor"
    },
    {
      "constant": true,
      "inputs": [],
      "name": "getNumberOfMembers",
      "outputs": [
        {
          "name": "",
          "type": "uint256"
        }
      ],
      "payable": false,
      "stateMutability": "view",
      "type": "function"
    },
    {
      "constant": false,
      "inputs": [
        {
          "name": "memberName",
          "type": "string"
        }
      ],
      "name": "applyForMembership",
      "outputs": [],
      "payable": false,
      "stateMutability": "nonpayable",
      "type": "function"
    },
    {
      "constant": false,
      "inputs": [
        {
          "name": "applicant",
          "type": "address"
        }
      ],
      "name": "confirmApplication",
      "outputs": [],
      "payable": false,
      "stateMutability": "nonpayable",
      "type": "function"
    },
    {
      "constant": false,
      "inputs": [
        {
          "name": "newName",
          "type": "string"
        }
      ],
      "name": "changeName",
      "outputs": [],
      "payable": false,
      "stateMutability": "nonpayable",
      "type": "function"
    },
    {
      "constant": true,
      "inputs": [
        {
          "name": "memberAddress",
          "type": "address"
        }
      ],
      "name": "isRegularOrBoardMember",
      "outputs": [
        {
          "name": "",
          "type": "bool"
        }
      ],
      "payable": false,
      "stateMutability": "view",
      "type": "function"
    },
    {
      "constant": false,
      "inputs": [],
      "name": "resignOwnMembership",
      "outputs": [],
      "payable": false,
      "stateMutability": "nonpayable",
      "type": "function"
    },
    {
      "constant": false,
      "inputs": [
        {
          "name": "newBoardMembers",
          "type": "address[]"
        }
      ],
      "name": "replaceBoardMembers",
      "outputs": [],
      "payable": false,
      "stateMutability": "nonpayable",
      "type": "function"
    },
    {
      "constant": true,
      "inputs": [],
      "name": "getNumberOfEligibleMembers",
      "outputs": [
        {
          "name": "",
          "type": "uint256"
        }
      ],
      "payable": false,
      "stateMutability": "view",
      "type": "function"
    },
    {
      "constant": false,
      "inputs": [
        {
          "name": "newAddress",
          "type": "address"
        }
      ],
      "name": "setVotingContractAddress",
      "outputs": [],
      "payable": false,
      "stateMutability": "nonpayable",
      "type": "function"
    },
    {
      "constant": false,
      "inputs": [
        {
          "name": "newAddress",
          "type": "address"
        }
      ],
      "name": "updateVotingContractAddress",
      "outputs": [],
      "payable": false,
      "stateMutability": "nonpayable",
      "type": "function"
    }
  ],
  "bytecode": "0x60806040523480156200001157600080fd5b50604051620017a1380380620017a18339810180604052810190808051820192919050505060008090505b8151811015620001db576060604051908101604052806040805190810160405280600381526020017f3f3f3f000000000000000000000000000000000000000000000000000000000081525081526020016003808111156200009a57fe5b8152602001438152506000808484815181101515620000b557fe5b9060200190602002015173ffffffffffffffffffffffffffffffffffffffff1673ffffffffffffffffffffffffffffffffffffffff168152602001908152602001600020600082015181600001908051906020019062000117929190620001e3565b5060208201518160010160006101000a81548160ff021916908360038111156200013d57fe5b021790555060408201518160020155905050600182828151811015156200016057fe5b9060200190602002015190806001815401808255809150509060018203906000526020600020016000909192909190916101000a81548173ffffffffffffffffffffffffffffffffffffffff021916908373ffffffffffffffffffffffffffffffffffffffff1602179055505080806001019150506200003c565b505062000292565b828054600181600116156101000203166002900490600052602060002090601f016020900481019282601f106200022657805160ff191683800117855562000257565b8280016001018555821562000257579182015b828111156200025657825182559160200191906001019062000239565b5b5090506200026691906200026a565b5090565b6200028f91905b808211156200028b57600081600090555060010162000271565b5090565b90565b6114ff80620002a26000396000f3006080604052600436106100c5576000357c0100000000000000000000000000000000000000000000000000000000900463ffffffff16806308ae4b0c146100ca57806324fe73fe146101a25780635353a2d8146101fd57806362b08e7014610266578063638dd56a146102a95780637cf2b9e4146102d45780638a31ffda146103175780638b73a46b1461037d578063a2427cfa146103a8578063cc4e6299146103ff578063d3b302e71461046c578063d56f279f146104d5578063fb213549146104ec575b600080fd5b3480156100d657600080fd5b5061010b600480360381019080803573ffffffffffffffffffffffffffffffffffffffff16906020019092919050505061052f565b604051808060200184600381111561011f57fe5b60ff168152602001838152602001828103825285818151815260200191508051906020019080838360005b8381101561016557808201518184015260208101905061014a565b50505050905090810190601f1680156101925780820380516001836020036101000a031916815260200191505b5094505050505060405180910390f35b3480156101ae57600080fd5b506101e3600480360381019080803573ffffffffffffffffffffffffffffffffffffffff1690602001909291905050506105fe565b604051808215151515815260200191505060405180910390f35b34801561020957600080fd5b50610264600480360381019080803590602001908201803590602001908080601f0160208091040260200160405190810160405280939291908181526020018383808284378201915050505050509192919290505050610694565b005b34801561027257600080fd5b506102a7600480360381019080803573ffffffffffffffffffffffffffffffffffffffff1690602001909291905050506106ed565b005b3480156102b557600080fd5b506102be610792565b6040518082815260200191505060405180910390f35b3480156102e057600080fd5b50610315600480360381019080803573ffffffffffffffffffffffffffffffffffffffff16906020019092919050505061080e565b005b34801561032357600080fd5b5061037b600480360381019080803590602001908201803590602001908080602002602001604051908101604052809392919081815260200183836020028082843782019150505050505091929192905050506108ae565b005b34801561038957600080fd5b50610392610aed565b6040518082815260200191505060405180910390f35b3480156103b457600080fd5b506103bd610afa565b604051808273ffffffffffffffffffffffffffffffffffffffff1673ffffffffffffffffffffffffffffffffffffffff16815260200191505060405180910390f35b34801561040b57600080fd5b5061042a60048036038101908080359060200190929190505050610b20565b604051808273ffffffffffffffffffffffffffffffffffffffff1673ffffffffffffffffffffffffffffffffffffffff16815260200191505060405180910390f35b34801561047857600080fd5b506104d3600480360381019080803590602001908201803590602001908080601f0160208091040260200160405190810160405280939291908181526020018383808284378201915050505050509192919290505050610b5e565b005b3480156104e157600080fd5b506104ea610cf4565b005b3480156104f857600080fd5b5061052d600480360381019080803573ffffffffffffffffffffffffffffffffffffffff169060200190929190505050610ecc565b005b6000602052806000526040600020600091509050806000018054600181600116156101000203166002900480601f0160208091040260200160405190810160405280929190818152602001828054600181600116156101000203166002900480156105db5780601f106105b0576101008083540402835291602001916105db565b820191906000526020600020905b8154815290600101906020018083116105be57829003601f168201915b5050505050908060010160009054906101000a900460ff16908060020154905083565b6000806000808473ffffffffffffffffffffffffffffffffffffffff1673ffffffffffffffffffffffffffffffffffffffff16815260200190815260200160002060010160009054906101000a900460ff1690506002600381111561065f57fe5b81600381111561066b57fe5b148061068c575060038081111561067e57fe5b81600381111561068a57fe5b145b915050919050565b806000803373ffffffffffffffffffffffffffffffffffffffff1673ffffffffffffffffffffffffffffffffffffffff16815260200190815260200160002060000190805190602001906106e9929190611361565b5050565b600073ffffffffffffffffffffffffffffffffffffffff16600360009054906101000a900473ffffffffffffffffffffffffffffffffffffffff1673ffffffffffffffffffffffffffffffffffffffff16141561078a5780600360006101000a81548173ffffffffffffffffffffffffffffffffffffffff021916908373ffffffffffffffffffffffffffffffffffffffff16021790555061078f565b600080fd5b50565b6000806000809150600090505b60018054905081141515610806576107ef6001828154811015156107bf57fe5b9060005260206000200160009054906101000a900473ffffffffffffffffffffffffffffffffffffffff166105fe565b156107fb578160010191505b80600101905061079f565b819250505090565b3373ffffffffffffffffffffffffffffffffffffffff16600360009054906101000a900473ffffffffffffffffffffffffffffffffffffffff1673ffffffffffffffffffffffffffffffffffffffff1614151561086a57600080fd5b80600360006101000a81548173ffffffffffffffffffffffffffffffffffffffff021916908373ffffffffffffffffffffffffffffffffffffffff16021790555050565b6000803373ffffffffffffffffffffffffffffffffffffffff16600360009054906101000a900473ffffffffffffffffffffffffffffffffffffffff1673ffffffffffffffffffffffffffffffffffffffff1614151561090d57600080fd5b60008351141561091c57600080fd5b600091505b825182141515610967576000151561094f848481518110151561094057fe5b906020019060200201516105fe565b1515141561095c57600080fd5b816001019150610921565b600091505b60018054905082141515610a545760008060018481548110151561098c57fe5b9060005260206000200160009054906101000a900473ffffffffffffffffffffffffffffffffffffffff1673ffffffffffffffffffffffffffffffffffffffff1673ffffffffffffffffffffffffffffffffffffffff16815260200190815260200160002090506003808111156109ff57fe5b8160010160009054906101000a900460ff166003811115610a1c57fe5b1415610a495760028160010160006101000a81548160ff02191690836003811115610a4357fe5b02179055505b81600101915061096c565b600091505b825182141515610ae85760036000808585815181101515610a7657fe5b9060200190602002015173ffffffffffffffffffffffffffffffffffffffff1673ffffffffffffffffffffffffffffffffffffffff16815260200190815260200160002060010160006101000a81548160ff02191690836003811115610ad857fe5b0217905550816001019150610a59565b505050565b6000600180549050905090565b600360009054906101000a900473ffffffffffffffffffffffffffffffffffffffff1681565b600181815481101515610b2f57fe5b906000526020600020016000915054906101000a900473ffffffffffffffffffffffffffffffffffffffff1681565b60006003811115610b6b57fe5b6000803373ffffffffffffffffffffffffffffffffffffffff1673ffffffffffffffffffffffffffffffffffffffff16815260200190815260200160002060010160009054906101000a900460ff166003811115610bc557fe5b141515610bd157600080fd5b60606040519081016040528082815260200160016003811115610bf057fe5b815260200160008152506000803373ffffffffffffffffffffffffffffffffffffffff1673ffffffffffffffffffffffffffffffffffffffff1681526020019081526020016000206000820151816000019080519060200190610c549291906113e1565b5060208201518160010160006101000a81548160ff02191690836003811115610c7957fe5b02179055506040820151816002015590505060013390806001815401808255809150509060018203906000526020600020016000909192909190916101000a81548173ffffffffffffffffffffffffffffffffffffffff021916908373ffffffffffffffffffffffffffffffffffffffff1602179055505050565b6000806000610d02336105fe565b1515610d0d57600080fd5b6001610d17610aed565b1415610d2257600080fd5b60008060003373ffffffffffffffffffffffffffffffffffffffff1673ffffffffffffffffffffffffffffffffffffffff16815260200190815260200160002060010160006101000a81548160ff02191690836003811115610d8057fe5b0217905550610d8d610aed565b9250600091505b82821015610ec757600182815481101515610dab57fe5b9060005260206000200160009054906101000a900473ffffffffffffffffffffffffffffffffffffffff1690503373ffffffffffffffffffffffffffffffffffffffff168173ffffffffffffffffffffffffffffffffffffffff161415610eba576001808403815481101515610e1d57fe5b9060005260206000200160009054906101000a900473ffffffffffffffffffffffffffffffffffffffff16600183815481101515610e5757fe5b9060005260206000200160006101000a81548173ffffffffffffffffffffffffffffffffffffffff021916908373ffffffffffffffffffffffffffffffffffffffff1602179055506001805480919060019003610eb49190611461565b50610ec7565b8180600101925050610d94565b505050565b6000806000600380811115610edd57fe5b6000803373ffffffffffffffffffffffffffffffffffffffff1673ffffffffffffffffffffffffffffffffffffffff16815260200190815260200160002060010160009054906101000a900460ff166003811115610f3757fe5b141515610f4357600080fd5b60016003811115610f5057fe5b6000808673ffffffffffffffffffffffffffffffffffffffff1673ffffffffffffffffffffffffffffffffffffffff16815260200190815260200160002060010160009054906101000a900460ff166003811115610faa57fe5b141515610fb657600080fd5b600260008573ffffffffffffffffffffffffffffffffffffffff1673ffffffffffffffffffffffffffffffffffffffff1681526020019081526020016000203390806001815401808255809150509060018203906000526020600020016000909192909190916101000a81548173ffffffffffffffffffffffffffffffffffffffff021916908373ffffffffffffffffffffffffffffffffffffffff1602179055505060019250600091505b61106a610aed565b8210156111425760018281548110151561108057fe5b9060005260206000200160009054906101000a900473ffffffffffffffffffffffffffffffffffffffff1690506003808111156110b957fe5b6000808373ffffffffffffffffffffffffffffffffffffffff1673ffffffffffffffffffffffffffffffffffffffff16815260200190815260200160002060010160009054906101000a900460ff16600381111561111357fe5b14801561112757506111258185611243565b155b156111355760009250611142565b8180600101925050611062565b821561123d5760026000808673ffffffffffffffffffffffffffffffffffffffff1673ffffffffffffffffffffffffffffffffffffffff16815260200190815260200160002060010160006101000a81548160ff021916908360038111156111a657fe5b0217905550436000808673ffffffffffffffffffffffffffffffffffffffff1673ffffffffffffffffffffffffffffffffffffffff16815260200190815260200160002060020181905550600260008573ffffffffffffffffffffffffffffffffffffffff1673ffffffffffffffffffffffffffffffffffffffff168152602001908152602001600020600061123c919061148d565b5b50505050565b600080600090505b600260008473ffffffffffffffffffffffffffffffffffffffff1673ffffffffffffffffffffffffffffffffffffffff16815260200190815260200160002080549050811015611355578373ffffffffffffffffffffffffffffffffffffffff16600260008573ffffffffffffffffffffffffffffffffffffffff1673ffffffffffffffffffffffffffffffffffffffff168152602001908152602001600020828154811015156112f857fe5b9060005260206000200160009054906101000a900473ffffffffffffffffffffffffffffffffffffffff1673ffffffffffffffffffffffffffffffffffffffff161415611348576001915061135a565b808060010191505061124b565b600091505b5092915050565b828054600181600116156101000203166002900490600052602060002090601f016020900481019282601f106113a257805160ff19168380011785556113d0565b828001600101855582156113d0579182015b828111156113cf5782518255916020019190600101906113b4565b5b5090506113dd91906114ae565b5090565b828054600181600116156101000203166002900490600052602060002090601f016020900481019282601f1061142257805160ff1916838001178555611450565b82800160010185558215611450579182015b8281111561144f578251825591602001919060010190611434565b5b50905061145d91906114ae565b5090565b8154818355818111156114885781836000526020600020918201910161148791906114ae565b5b505050565b50805460008255906000526020600020908101906114ab91906114ae565b50565b6114d091905b808211156114cc5760008160009055506001016114b4565b5090565b905600a165627a7a723058209c6756edcace618532c0607d406edf43527e782184bb4b5d8adaf0f83daa2e5e0029",
  "source": "pragma solidity ^0.4.24;\n\ncontract Members {\n\n    enum MemberStatus {\n          // not a member or applicant\n        NONE,\n        // account applied for membership\n        APPLIED,\n        // regular, confirmed member\n        REGULAR,\n        // member with board voting rights\n        BOARD\n    }\n\n    struct Member {\n        string name;\n        MemberStatus status;\n        uint entryBlock;\n    }\n\n    mapping (address => Member) public members;\n    address[] public memberAddresses;\n\n    mapping (address => address[]) confirmations;\n\n    address public votingContractAddress;\n\n    constructor(address[] initialMemberAddresses) public {\n        for (uint index = 0; index < initialMemberAddresses.length; index++) {\n            // all initial members are board members\n            members[initialMemberAddresses[index]] = Member({name: \"???\", status: MemberStatus.BOARD, entryBlock: block.number});\n            memberAddresses.push(initialMemberAddresses[index]);\n        }\n    }\n\n    modifier onlyVotingContract() {\n        require (votingContractAddress == msg.sender);\n        _;\n    }\n\n    function getNumberOfMembers() public view returns (uint) {\n        return memberAddresses.length;\n    }\n\n    function applyForMembership(string memberName) public {\n        require (members[msg.sender].status == MemberStatus.NONE);\n        members[msg.sender] = Member({name: memberName, status: MemberStatus.APPLIED, entryBlock: 0});\n        memberAddresses.push(msg.sender);\n    }\n\n    function confirmApplication(address applicant) public {\n        require (members[msg.sender].status == MemberStatus.BOARD);\n        require (members[applicant].status == MemberStatus.APPLIED);\n        confirmations[applicant].push(msg.sender);\n        bool allBoardMembersConfirmed = true;\n        for (uint index = 0; index < getNumberOfMembers(); index++) {\n            address memberAddress = memberAddresses[index];\n            if (members[memberAddress].status == MemberStatus.BOARD && !hasConfirmedApplicant(memberAddress, applicant)) {\n                allBoardMembersConfirmed = false;\n                break;\n            }\n        }\n        if (allBoardMembersConfirmed) {\n            members[applicant].status = MemberStatus.REGULAR;\n            members[applicant].entryBlock = block.number;\n            delete confirmations[applicant];\n        }\n    }\n\n    function hasConfirmedApplicant(address boardMember, address applicant) private view returns (bool) {\n        for (uint index = 0; index < confirmations[applicant].length; index++) {\n            if (confirmations[applicant][index] == boardMember)\n                return true;\n        }\n        return false;\n    }\n\n    function changeName(string newName) public {\n        members[msg.sender].name = newName;\n    }\n\n    function isRegularOrBoardMember(address memberAddress) public view returns (bool) {\n        MemberStatus status = members[memberAddress].status;\n        return status == MemberStatus.REGULAR || status == MemberStatus.BOARD;\n    }\n\n    /**\n     * Resign membership - Deletes sender address from list of members \n     * (as long as it is not the last remaining member)\n     */\n    function resignOwnMembership() public {\n        require(isRegularOrBoardMember(msg.sender));\n    \n        // don't allow last man standing to resign\n        if (getNumberOfMembers() == 1) {\n            revert();\n        }\n\n        // reset membership status\n        members[msg.sender].status = MemberStatus.NONE;\n        \n        // delete address of (ex) member from list of member addresses\n        uint numberOfMembers = getNumberOfMembers();\n        for (uint index = 0; index < numberOfMembers; index++) {\n            address memberAddress = memberAddresses[index];\n            if (memberAddress == msg.sender) {\n                // delete by replacing item with last element of the array\n                memberAddresses[index] = memberAddresses[numberOfMembers-1];\n                memberAddresses.length--;\n                break;\n            }\n        }\n    }\n\n    /**\n     * Instantiates new board members.\n     */\n    function replaceBoardMembers(address[] newBoardMembers) public onlyVotingContract {\n\n        // this is redundant:\n        // It should not even be possible to have a board member vote with no board members to be instantiated\n        if (newBoardMembers.length == 0) {\n            revert();\n        }\n\n        // check if new board members are already a member.\n        for (uint i = 0; i != newBoardMembers.length; ++i) {\n            if (isRegularOrBoardMember(newBoardMembers[i]) == false) {\n                revert();\n            }\n        }\n\n        // reset board members to regular members\n        for (i = 0; i != memberAddresses.length; ++i) {\n            Member storage member = members[memberAddresses[i]];\n            if (member.status == MemberStatus.BOARD) {\n                member.status = MemberStatus.REGULAR;\n            }\n        }   \n\n        // instantiate new board members\n        for (i = 0; i != newBoardMembers.length; ++i) {\n            members[newBoardMembers[i]].status = MemberStatus.BOARD;\n        }\n    } \n\n    /**\n     * Eligible members are members allowed to vote: board members or regular members\n     */\n    function getNumberOfEligibleMembers() public view returns (uint) {\n        uint numberOfMembers = 0;\n        for (uint i = 0; i != memberAddresses.length; ++i) {\n            if (isRegularOrBoardMember(memberAddresses[i])) {\n                ++numberOfMembers;\n            }\n        }\n        return numberOfMembers;\n    }\n\n    /**\n     * Initially set contract address\n     */\n    function setVotingContractAddress(address newAddress) public {\n        if (votingContractAddress == address(0)) {\n            votingContractAddress = newAddress;\n        } else {\n            revert();\n        }\n    }\n\n    /**\n     * Voting contract can update its address after a vote.\n     */\n    function updateVotingContractAddress(address newAddress) public onlyVotingContract {\n        votingContractAddress = newAddress;\n    }\n}\n",
  "sourcePath": "C:\\Users\\mdelloso\\Workspace\\Angular\\blocklab-site\\src\\contracts\\Members.sol",
  "compiler": {
    "name": "solc",
    "version": "0.4.24+commit.e67f0147.Emscripten.clang"
  },
  "schemaVersion": "2.0.0",
  "updatedAt": "2018-05-29T10:49:28.828Z"
}