{
  "contractName": "Voting",
  "abi": [
    {
      "inputs": [
        {
          "name": "membersContractAddress",
          "type": "address"
        }
      ],
      "payable": false,
      "stateMutability": "nonpayable",
      "type": "constructor"
    },
    {
      "constant": false,
      "inputs": [
        {
          "name": "name",
          "type": "string"
        },
        {
          "name": "documentHash",
          "type": "bytes32"
        },
        {
          "name": "newBoardMembers",
          "type": "address[]"
        }
      ],
      "name": "initiateBoardMemberVote",
      "outputs": [
        {
          "name": "",
          "type": "uint256"
        }
      ],
      "payable": false,
      "stateMutability": "nonpayable",
      "type": "function"
    },
    {
      "constant": false,
      "inputs": [
        {
          "name": "name",
          "type": "string"
        },
        {
          "name": "documentHash",
          "type": "bytes32"
        }
      ],
      "name": "initiateDocumentVote",
      "outputs": [
        {
          "name": "",
          "type": "uint256"
        }
      ],
      "payable": false,
      "stateMutability": "nonpayable",
      "type": "function"
    },
    {
      "constant": false,
      "inputs": [
        {
          "name": "name",
          "type": "string"
        },
        {
          "name": "newContractAddress",
          "type": "address"
        }
      ],
      "name": "initiateVotingContractUpdateVote",
      "outputs": [
        {
          "name": "",
          "type": "uint256"
        }
      ],
      "payable": false,
      "stateMutability": "nonpayable",
      "type": "function"
    },
    {
      "constant": false,
      "inputs": [
        {
          "name": "voteId",
          "type": "uint256"
        },
        {
          "name": "decision",
          "type": "bool"
        }
      ],
      "name": "castVote",
      "outputs": [],
      "payable": false,
      "stateMutability": "nonpayable",
      "type": "function"
    },
    {
      "constant": true,
      "inputs": [],
      "name": "getNumberOfVotes",
      "outputs": [
        {
          "name": "",
          "type": "uint256"
        }
      ],
      "payable": false,
      "stateMutability": "view",
      "type": "function"
    },
    {
      "constant": true,
      "inputs": [
        {
          "name": "voteId",
          "type": "uint256"
        }
      ],
      "name": "getVoteDetails",
      "outputs": [
        {
          "name": "",
          "type": "string"
        },
        {
          "name": "",
          "type": "uint256"
        },
        {
          "name": "",
          "type": "bytes32"
        },
        {
          "name": "",
          "type": "uint256"
        },
        {
          "name": "",
          "type": "address[]"
        },
        {
          "name": "",
          "type": "address"
        },
        {
          "name": "",
          "type": "address[]"
        }
      ],
      "payable": false,
      "stateMutability": "view",
      "type": "function"
    },
    {
      "constant": false,
      "inputs": [
        {
          "name": "voteId",
          "type": "uint256"
        }
      ],
      "name": "closeVote",
      "outputs": [],
      "payable": false,
      "stateMutability": "nonpayable",
      "type": "function"
    },
    {
      "constant": true,
      "inputs": [
        {
          "name": "voteId",
          "type": "uint256"
        }
      ],
      "name": "computeVoteOutcome",
      "outputs": [
        {
          "name": "",
          "type": "uint256"
        }
      ],
      "payable": false,
      "stateMutability": "view",
      "type": "function"
    }
  ],
  "bytecode": "0x608060405234801561001057600080fd5b50604051602080611cc583398101806040528101908080519060200190929190505050806000806101000a81548173ffffffffffffffffffffffffffffffffffffffff021916908373ffffffffffffffffffffffffffffffffffffffff16021790555050611c42806100836000396000f30060806040526004361061008e576000357c0100000000000000000000000000000000000000000000000000000000900463ffffffff168063062907d51461009357806315373e3d14610130578063249559ad1461016957806354a1b431146101aa57806359198827146103305780636e48a035146103bb5780638a61bb91146103e8578063cee024dc146104b6575b600080fd5b34801561009f57600080fd5b5061011a600480360381019080803590602001908201803590602001908080601f0160208091040260200160405190810160405280939291908181526020018383808284378201915050505050509192919290803573ffffffffffffffffffffffffffffffffffffffff1690602001909291905050506104e1565b6040518082815260200191505060405180910390f35b34801561013c57600080fd5b5061016760048036038101908080359060200190929190803515159060200190929190505050610828565b005b34801561017557600080fd5b5061019460048036038101908080359060200190929190505050610b58565b6040518082815260200191505060405180910390f35b3480156101b657600080fd5b506101d560048036038101908080359060200190929190505050610b96565b60405180806020018881526020018760001916600019168152602001868152602001806020018573ffffffffffffffffffffffffffffffffffffffff1673ffffffffffffffffffffffffffffffffffffffff1681526020018060200184810384528b818151815260200191508051906020019080838360005b8381101561026957808201518184015260208101905061024e565b50505050905090810190601f1680156102965780820380516001836020036101000a031916815260200191505b50848103835287818151815260200191508051906020019060200280838360005b838110156102d25780820151818401526020810190506102b7565b50505050905001848103825285818151815260200191508051906020019060200280838360005b838110156103145780820151818401526020810190506102f9565b505050509050019a505050505050505050505060405180910390f35b34801561033c57600080fd5b506103a5600480360381019080803590602001908201803590602001908080601f01602080910402602001604051908101604052809392919081815260200183838082843782019150505050505091929192908035600019169060200190929190505050610dfa565b6040518082815260200191505060405180910390f35b3480156103c757600080fd5b506103e660048036038101908080359060200190929190505050611105565b005b3480156103f457600080fd5b506104a0600480360381019080803590602001908201803590602001908080601f0160208091040260200160405190810160405280939291908181526020018383808284378201915050505050509192919290803560001916906020019092919080359060200190820180359060200190808060200260200160405190810160405280939291908181526020018383602002808284378201915050505050509192919290505050611593565b6040518082815260200191505060405180910390f35b3480156104c257600080fd5b506104cb61187e565b6040518082815260200191505060405180910390f35b60008060009054906101000a900473ffffffffffffffffffffffffffffffffffffffff1673ffffffffffffffffffffffffffffffffffffffff166324fe73fe336040518263ffffffff167c0100000000000000000000000000000000000000000000000000000000028152600401808273ffffffffffffffffffffffffffffffffffffffff1673ffffffffffffffffffffffffffffffffffffffff168152602001915050602060405180830381600087803b15801561059f57600080fd5b505af11580156105b3573d6000803e3d6000fd5b505050506040513d60208110156105c957600080fd5b810190808051906020019092919050505015156105e557600080fd5b600073ffffffffffffffffffffffffffffffffffffffff168273ffffffffffffffffffffffffffffffffffffffff16141561061f57600080fd5b600160e06040519081016040528085815260200160038081111561063f57fe5b815260200160006001026000191681526020016001600281111561065f57fe5b815260200160006040519080825280602002602001820160405280156106945781602001602082028038833980820191505090505b50815260200160006040519080825280602002602001820160405280156106ca5781602001602082028038833980820191505090505b5081526020018473ffffffffffffffffffffffffffffffffffffffff16815250908060018154018082558091505090600182039060005260206000209060080201600090919290919091506000820151816000019080519060200190610731929190611aa4565b5060208201518160010160006101000a81548160ff0219169083600381111561075657fe5b02179055506040820151816002019060001916905560608201518160030160006101000a81548160ff0219169083600281111561078f57fe5b021790555060808201518160050190805190602001906107b0929190611b24565b5060a08201518160060190805190602001906107cd929190611b24565b5060c08201518160070160006101000a81548173ffffffffffffffffffffffffffffffffffffffff021916908373ffffffffffffffffffffffffffffffffffffffff1602179055505050506001808054905003905092915050565b60008060009054906101000a900473ffffffffffffffffffffffffffffffffffffffff1673ffffffffffffffffffffffffffffffffffffffff166324fe73fe336040518263ffffffff167c0100000000000000000000000000000000000000000000000000000000028152600401808273ffffffffffffffffffffffffffffffffffffffff1673ffffffffffffffffffffffffffffffffffffffff168152602001915050602060405180830381600087803b1580156108e657600080fd5b505af11580156108fa573d6000803e3d6000fd5b505050506040513d602081101561091057600080fd5b8101908080519060200190929190505050151561092c57600080fd5b826001600281111561093a57fe5b60018281548110151561094957fe5b906000526020600020906008020160030160009054906101000a900460ff16600281111561097357fe5b14151561097f57600080fd5b60018481548110151561098e57fe5b90600052602060002090600802019150600060028111156109ab57fe5b8260040160003373ffffffffffffffffffffffffffffffffffffffff1673ffffffffffffffffffffffffffffffffffffffff16815260200190815260200160002060009054906101000a900460ff166002811115610a0557fe5b141515610a1157600080fd5b600115158315151415610a865760018260040160003373ffffffffffffffffffffffffffffffffffffffff1673ffffffffffffffffffffffffffffffffffffffff16815260200190815260200160002060006101000a81548160ff02191690836002811115610a7c57fe5b0217905550610aea565b60028260040160003373ffffffffffffffffffffffffffffffffffffffff1673ffffffffffffffffffffffffffffffffffffffff16815260200190815260200160002060006101000a81548160ff02191690836002811115610ae457fe5b02179055505b816005013390806001815401808255809150509060018203906000526020600020016000909192909190916101000a81548173ffffffffffffffffffffffffffffffffffffffff021916908373ffffffffffffffffffffffffffffffffffffffff1602179055505050505050565b600080610b80600184815481101515610b6d57fe5b906000526020600020906008020161188b565b9050806002811115610b8e57fe5b915050919050565b606060008060006060600060606000600189815481101515610bb457fe5b90600052602060002090600802019050806000018160010160009054906101000a900460ff166003811115610be557fe5b82600201548360030160009054906101000a900460ff166002811115610c0757fe5b846006018560070160009054906101000a900473ffffffffffffffffffffffffffffffffffffffff1686600501868054600181600116156101000203166002900480601f016020809104026020016040519081016040528092919081815260200182805460018160011615610100020316600290048015610cc95780601f10610c9e57610100808354040283529160200191610cc9565b820191906000526020600020905b815481529060010190602001808311610cac57829003601f168201915b5050505050965082805480602002602001604051908101604052809291908181526020018280548015610d5157602002820191906000526020600020905b8160009054906101000a900473ffffffffffffffffffffffffffffffffffffffff1673ffffffffffffffffffffffffffffffffffffffff1681526020019060010190808311610d07575b5050505050925080805480602002602001604051908101604052809291908181526020018280548015610dd957602002820191906000526020600020905b8160009054906101000a900473ffffffffffffffffffffffffffffffffffffffff1673ffffffffffffffffffffffffffffffffffffffff1681526020019060010190808311610d8f575b50505050509050975097509750975097509750975050919395979092949650565b60008060009054906101000a900473ffffffffffffffffffffffffffffffffffffffff1673ffffffffffffffffffffffffffffffffffffffff166324fe73fe336040518263ffffffff167c0100000000000000000000000000000000000000000000000000000000028152600401808273ffffffffffffffffffffffffffffffffffffffff1673ffffffffffffffffffffffffffffffffffffffff168152602001915050602060405180830381600087803b158015610eb857600080fd5b505af1158015610ecc573d6000803e3d6000fd5b505050506040513d6020811015610ee257600080fd5b81019080805190602001909291905050501515610efe57600080fd5b600160e06040519081016040528085815260200160016003811115610f1f57fe5b81526020018460001916815260200160016002811115610f3b57fe5b81526020016000604051908082528060200260200182016040528015610f705781602001602082028038833980820191505090505b5081526020016000604051908082528060200260200182016040528015610fa65781602001602082028038833980820191505090505b508152602001600073ffffffffffffffffffffffffffffffffffffffff1681525090806001815401808255809150509060018203906000526020600020906008020160009091929091909150600082015181600001908051906020019061100e929190611aa4565b5060208201518160010160006101000a81548160ff0219169083600381111561103357fe5b02179055506040820151816002019060001916905560608201518160030160006101000a81548160ff0219169083600281111561106c57fe5b0217905550608082015181600501908051906020019061108d929190611b24565b5060a08201518160060190805190602001906110aa929190611b24565b5060c08201518160070160006101000a81548173ffffffffffffffffffffffffffffffffffffffff021916908373ffffffffffffffffffffffffffffffffffffffff1602179055505050506001808054905003905092915050565b6000806000809054906101000a900473ffffffffffffffffffffffffffffffffffffffff1673ffffffffffffffffffffffffffffffffffffffff166324fe73fe336040518263ffffffff167c0100000000000000000000000000000000000000000000000000000000028152600401808273ffffffffffffffffffffffffffffffffffffffff1673ffffffffffffffffffffffffffffffffffffffff168152602001915050602060405180830381600087803b1580156111c457600080fd5b505af11580156111d8573d6000803e3d6000fd5b505050506040513d60208110156111ee57600080fd5b8101908080519060200190929190505050151561120a57600080fd5b826001600281111561121857fe5b60018281548110151561122757fe5b906000526020600020906008020160030160009054906101000a900460ff16600281111561125157fe5b14151561125d57600080fd5b60018481548110151561126c57fe5b906000526020600020906008020192506112858361188b565b91506000600281111561129457fe5b8260028111156112a057fe5b14156112ab57600080fd5b60028360030160006101000a81548160ff021916908360028111156112cc57fe5b0217905550600160028111156112de57fe5b8260028111156112ea57fe5b14801561131e5750600260038111156112ff57fe5b8360010160009054906101000a900460ff16600381111561131c57fe5b145b15611443576000809054906101000a900473ffffffffffffffffffffffffffffffffffffffff1673ffffffffffffffffffffffffffffffffffffffff16638a31ffda846006016040518263ffffffff167c01000000000000000000000000000000000000000000000000000000000281526004018080602001828103825283818154815260200191508054801561140a57602002820191906000526020600020905b8160009054906101000a900473ffffffffffffffffffffffffffffffffffffffff1673ffffffffffffffffffffffffffffffffffffffff16815260200190600101908083116113c0575b505092505050600060405180830381600087803b15801561142a57600080fd5b505af115801561143e573d6000803e3d6000fd5b505050505b6001600281111561145057fe5b82600281111561145c57fe5b14801561148f575060038081111561147057fe5b8360010160009054906101000a900460ff16600381111561148d57fe5b145b1561158d576000809054906101000a900473ffffffffffffffffffffffffffffffffffffffff1673ffffffffffffffffffffffffffffffffffffffff16637cf2b9e48460070160009054906101000a900473ffffffffffffffffffffffffffffffffffffffff166040518263ffffffff167c0100000000000000000000000000000000000000000000000000000000028152600401808273ffffffffffffffffffffffffffffffffffffffff1673ffffffffffffffffffffffffffffffffffffffff168152602001915050600060405180830381600087803b15801561157457600080fd5b505af1158015611588573d6000803e3d6000fd5b505050505b50505050565b60008060009054906101000a900473ffffffffffffffffffffffffffffffffffffffff1673ffffffffffffffffffffffffffffffffffffffff166324fe73fe336040518263ffffffff167c0100000000000000000000000000000000000000000000000000000000028152600401808273ffffffffffffffffffffffffffffffffffffffff1673ffffffffffffffffffffffffffffffffffffffff168152602001915050602060405180830381600087803b15801561165157600080fd5b505af1158015611665573d6000803e3d6000fd5b505050506040513d602081101561167b57600080fd5b8101908080519060200190929190505050151561169757600080fd5b6000825114156116a657600080fd5b600160e060405190810160405280868152602001600260038111156116c757fe5b815260200185600019168152602001600160028111156116e357fe5b815260200160006040519080825280602002602001820160405280156117185781602001602082028038833980820191505090505b508152602001848152602001600073ffffffffffffffffffffffffffffffffffffffff16815250908060018154018082558091505090600182039060005260206000209060080201600090919290919091506000820151816000019080519060200190611786929190611aa4565b5060208201518160010160006101000a81548160ff021916908360038111156117ab57fe5b02179055506040820151816002019060001916905560608201518160030160006101000a81548160ff021916908360028111156117e457fe5b02179055506080820151816005019080519060200190611805929190611b24565b5060a0820151816006019080519060200190611822929190611b24565b5060c08201518160070160006101000a81548173ffffffffffffffffffffffffffffffffffffffff021916908373ffffffffffffffffffffffffffffffffffffffff160217905550505050600180805490500390509392505050565b6000600180549050905090565b6000806000806000806000945060009350600092505b8660050180549050831415156119985786600401600088600501858154811015156118c857fe5b9060005260206000200160009054906101000a900473ffffffffffffffffffffffffffffffffffffffff1673ffffffffffffffffffffffffffffffffffffffff1673ffffffffffffffffffffffffffffffffffffffff16815260200190815260200160002060009054906101000a900460ff1691506001600281111561194a57fe5b82600281111561195657fe5b14156119675784600101945061198d565b60028081111561197357fe5b82600281111561197f57fe5b141561198c578360010193505b5b8260010192506118a1565b6000809054906101000a900473ffffffffffffffffffffffffffffffffffffffff1673ffffffffffffffffffffffffffffffffffffffff1663638dd56a6040518163ffffffff167c0100000000000000000000000000000000000000000000000000000000028152600401602060405180830381600087803b158015611a1d57600080fd5b505af1158015611a31573d6000803e3d6000fd5b505050506040513d6020811015611a4757600080fd5b81019080805190602001909291905050509050600281811515611a6657fe5b04851115611a775760019550611a9a565b600281811515611a8357fe5b0484101515611a955760029550611a9a565b600095505b5050505050919050565b828054600181600116156101000203166002900490600052602060002090601f016020900481019282601f10611ae557805160ff1916838001178555611b13565b82800160010185558215611b13579182015b82811115611b12578251825591602001919060010190611af7565b5b509050611b209190611bae565b5090565b828054828255906000526020600020908101928215611b9d579160200282015b82811115611b9c5782518260006101000a81548173ffffffffffffffffffffffffffffffffffffffff021916908373ffffffffffffffffffffffffffffffffffffffff16021790555091602001919060010190611b44565b5b509050611baa9190611bd3565b5090565b611bd091905b80821115611bcc576000816000905550600101611bb4565b5090565b90565b611c1391905b80821115611c0f57600081816101000a81549073ffffffffffffffffffffffffffffffffffffffff021916905550600101611bd9565b5090565b905600a165627a7a72305820ad45cc6f0751170e3a218cac98d56a39dd8699c1cc870fb616956117013885720029",
  "source": "pragma solidity ^0.4.24;\n\nimport \"./Members.sol\";\n\ncontract Voting {\n\n    Members private membersContract;\n\n    enum VoteStatus {\n        NONE,\n        OPEN,\n        CLOSED\n    }\n\n    enum VoteOutcome {\n        NONE,\n        YES,\n        NO\n    }\n\n    enum VoteType {\n        NONE,\n        DOCUMENT,\n        BOARD_MEMBER,\n        VOTING_CONTRACT_UPDATE\n    }\n\n    struct Vote {\n        string name;\n        VoteType voteType;\n        bytes32 documentHash;\n        VoteStatus status;\n        mapping (address => VoteOutcome) outcome;\n        address[] voters;\n        address[] newBoardMembers;\n        address newVotingContractAddress;\n    }\n\n    Vote[] private votes;\n\n    modifier onlyMember {\n        require(membersContract.isRegularOrBoardMember(msg.sender));\n        _;\n    }\n\n    modifier onlyOpenVote(uint voteId) {\n        require(votes[voteId].status == VoteStatus.OPEN);\n        _;\n    }\n\n    modifier onlyClosedVote(uint voteId) {\n        require(votes[voteId].status == VoteStatus.CLOSED);\n        _;\n    }\n\n    // Instantiate voting contract with members contract address\n    constructor(address membersContractAddress) public {\n        membersContract = Members(membersContractAddress); \n    }\n\n    function initiateBoardMemberVote(string name, bytes32 documentHash, address[] newBoardMembers) public onlyMember returns (uint) {\n        if (newBoardMembers.length == 0) {\n            revert();\n        }\n\n        votes.push(Vote(\n            { name: name,\n            voteType: VoteType.BOARD_MEMBER,\n            documentHash: documentHash,\n            status: VoteStatus.OPEN,\n            newBoardMembers: newBoardMembers,\n            newVotingContractAddress: address(0),\n            voters: new address[](0)}));\n\n        return votes.length - 1;\n    }\n\n    // create a document vote\n    function initiateDocumentVote(string name, bytes32 documentHash) public onlyMember returns (uint) {\n        votes.push(Vote(\n            { name: name,\n            voteType: VoteType.DOCUMENT,\n            documentHash: documentHash,\n            status: VoteStatus.OPEN,\n            newBoardMembers: new address[](0),\n            newVotingContractAddress: address(0),\n            voters: new address[](0)}));\n\n        return votes.length - 1;\n    }\n\n    // create a contract update vote\n    function initiateVotingContractUpdateVote(string name, address newContractAddress) public onlyMember returns (uint) {\n        if (newContractAddress == address(0)) {\n            revert();\n        }\n        \n        votes.push(Vote(\n            { name: name,\n            voteType: VoteType.VOTING_CONTRACT_UPDATE,\n            documentHash: 0,\n            status: VoteStatus.OPEN,\n            newBoardMembers: new address[](0),\n            newVotingContractAddress: newContractAddress,\n            voters: new address[](0)}));\n\n        return votes.length - 1;\n    }\n\n    function castVote(uint voteId, bool decision) public onlyMember onlyOpenVote(voteId) {\n        Vote storage vote = votes[voteId];\n        require(vote.outcome[msg.sender] == VoteOutcome.NONE);\n        if (decision == true) {\n            vote.outcome[msg.sender] = VoteOutcome.YES;\n        } else {\n            vote.outcome[msg.sender] = VoteOutcome.NO;\n        }\n        vote.voters.push(msg.sender);\n    }\n\n    function getNumberOfVotes() public view returns (uint) {\n        return votes.length;\n    }\n\n    /**\n     * Returns vote details:\n     *   name\n     *   type (0: NONE, 1: DOCUMENT, 2: BOARD_MEMBER, 3: VOTING_CONTRACT_UPDATE)\n     *   documentHash (if board member vote or contract update vote)\n     *   status (0: NONE, 1: OPEN, 2: CLOSED)\n     *   board member addresses (if board member vote)\n     *   address of new voting contract (if contract update vote)\n     *   addresses of voters\n     */\n    function getVoteDetails(uint voteId) public view returns (string, uint, bytes32, uint, address[], address, address[]) {\n        Vote storage vote = votes[voteId];\n        return (vote.name, \n            uint(vote.voteType),\n            vote.documentHash,\n            uint(vote.status),\n            vote.newBoardMembers,\n            vote.newVotingContractAddress,\n            vote.voters);\n    }\n\n    /**\n     * Closes vote (if result exists)\n     */\n    function closeVote(uint voteId) public onlyMember onlyOpenVote(voteId) { \n        Vote storage vote = votes[voteId];\n        VoteOutcome outcome = computeVoteOutcome(vote);\n\n        // only close vote if result exists\n        if (outcome == VoteOutcome.NONE) {\n            revert();\n        }          \n\n        vote.status = VoteStatus.CLOSED;\n\n        // instantiate board members in case of board member vote\n        if (outcome == VoteOutcome.YES && vote.voteType == VoteType.BOARD_MEMBER) {\n            membersContract.replaceBoardMembers(vote.newBoardMembers);\n        } \n\n        // set new contract address in case of contract address vote\n        if (outcome == VoteOutcome.YES && vote.voteType == VoteType.VOTING_CONTRACT_UPDATE) {\n            membersContract.updateVotingContractAddress(vote.newVotingContractAddress);\n        }\n    }\n\n    function computeVoteOutcome(uint voteId) public view returns (uint) {\n        VoteOutcome outcome = computeVoteOutcome(votes[voteId]);\n        return uint(outcome);\n    }\n\n    /**\n     * Eligible voters: E (i.e., regular or board members)\n     * Positive votes: Y\n     * Negative votes: N\n     * Open votes: O\n     * Y > E/2 --> Vote positive\n     * N > E/2 --> Vote negative\n     * Elsewise: Vote still open\n     */\n    function computeVoteOutcome(Vote storage vote) private view returns (VoteOutcome) {\n        uint positiveVotes = 0;\n        uint negativeVotes = 0;\n\n        // count votes: iterate through all members\n        for (uint i = 0; i != vote.voters.length; ++i) {\n            VoteOutcome outcome = vote.outcome[vote.voters[i]];\n            if (outcome == VoteOutcome.YES) {\n                ++positiveVotes;\n            } else if (outcome == VoteOutcome.NO) {\n                ++negativeVotes;\n            }\n        }\n\n        // process result\n        uint eligibleVoters = membersContract.getNumberOfEligibleMembers();\n        if (positiveVotes > eligibleVoters/2) {\n            return VoteOutcome.YES;\n        } else if (negativeVotes >= eligibleVoters/2) {\n            return VoteOutcome.NO;\n        } else {\n            return VoteOutcome.NONE;\n        }\n    }\n}\n",
  "sourcePath": "C:\\Users\\mdelloso\\Workspace\\Angular\\blocklab-site\\src\\contracts\\Voting.sol",
  "compiler": {
    "name": "solc",
    "version": "0.4.24+commit.e67f0147.Emscripten.clang"
  },
  "schemaVersion": "2.0.0",
  "updatedAt": "2018-05-25T08:06:34.695Z"
}